{
  "contractName": "CertificateVerification",
  "abi": [
    {
      "constant": false,
      "inputs": [
        {
          "internalType": "string",
          "name": "_hash",
          "type": "string"
        },
        {
          "internalType": "string",
          "name": "_studentName",
          "type": "string"
        },
        {
          "internalType": "string",
          "name": "_course",
          "type": "string"
        },
        {
          "internalType": "string",
          "name": "_institution",
          "type": "string"
        }
      ],
      "name": "issueCertificate",
      "outputs": [],
      "payable": false,
      "stateMutability": "nonpayable",
      "type": "function"
    },
    {
      "constant": true,
      "inputs": [
        {
          "internalType": "string",
          "name": "_hash",
          "type": "string"
        }
      ],
      "name": "verifyCertificate",
      "outputs": [
        {
          "internalType": "bool",
          "name": "",
          "type": "bool"
        },
        {
          "internalType": "string",
          "name": "",
          "type": "string"
        },
        {
          "internalType": "string",
          "name": "",
          "type": "string"
        },
        {
          "internalType": "string",
          "name": "",
          "type": "string"
        }
      ],
      "payable": false,
      "stateMutability": "view",
      "type": "function"
    }
  ],
  "bytecode": "0x608060405234801561001057600080fd5b506109d4806100206000396000f3fe608060405234801561001057600080fd5b5060043610610053576000357c010000000000000000000000000000000000000000000000000000000090048063818a2994146100585780638b23d875146102d8575b600080fd5b6102d66004803603608081101561006e57600080fd5b810190808035906020019064010000000081111561008b57600080fd5b82018360208201111561009d57600080fd5b803590602001918460018302840111640100000000831117156100bf57600080fd5b91908080601f016020809104026020016040519081016040528093929190818152602001838380828437600081840152601f19601f8201169050808301925050505050505091929192908035906020019064010000000081111561012257600080fd5b82018360208201111561013457600080fd5b8035906020019184600183028401116401000000008311171561015657600080fd5b91908080601f016020809104026020016040519081016040528093929190818152602001838380828437600081840152601f19601f820116905080830192505050505050509192919290803590602001906401000000008111156101b957600080fd5b8201836020820111156101cb57600080fd5b803590602001918460018302840111640100000000831117156101ed57600080fd5b91908080601f016020809104026020016040519081016040528093929190818152602001838380828437600081840152601f19601f8201169050808301925050505050505091929192908035906020019064010000000081111561025057600080fd5b82018360208201111561026257600080fd5b8035906020019184600183028401116401000000008311171561028457600080fd5b91908080601f016020809104026020016040519081016040528093929190818152602001838380828437600081840152601f19601f8201169050808301925050505050505091929192905050506104ef565b005b610391600480360360208110156102ee57600080fd5b810190808035906020019064010000000081111561030b57600080fd5b82018360208201111561031d57600080fd5b8035906020019184600183028401116401000000008311171561033f57600080fd5b91908080601f016020809104026020016040519081016040528093929190818152602001838380828437600081840152601f19601f82011690508083019250505050505050919291929050505061060c565b6040518085151515158152602001806020018060200180602001848103845287818151815260200191508051906020019080838360005b838110156103e35780820151818401526020810190506103c8565b50505050905090810190601f1680156104105780820380516001836020036101000a031916815260200191505b50848103835286818151815260200191508051906020019080838360005b8381101561044957808201518184015260208101905061042e565b50505050905090810190601f1680156104765780820380516001836020036101000a031916815260200191505b50848103825285818151815260200191508051906020019080838360005b838110156104af578082015181840152602081019050610494565b50505050905090810190601f1680156104dc5780820380516001836020036101000a031916815260200191505b5097505050505050505060405180910390f35b6040518060a00160405280848152602001838152602001828152602001428152602001600115158152506000856040518082805190602001908083835b6020831061054f578051825260208201915060208101905060208303925061052c565b6001836020036101000a0380198251168184511680821785525050505050509050019150509081526020016040518091039020600082015181600001908051906020019061059e9291906108c9565b5060208201518160010190805190602001906105bb9291906108c9565b5060408201518160020190805190602001906105d89291906108c9565b506060820151816003015560808201518160040160006101000a81548160ff02191690831515021790555090505050505050565b6000606080606061061b610949565b6000866040518082805190602001908083835b60208310610651578051825260208201915060208101905060208303925061062e565b6001836020036101000a03801982511681845116808217855250505050505090500191505090815260200160405180910390206040518060a0016040529081600082018054600181600116156101000203166002900480601f0160208091040260200160405190810160405280929190818152602001828054600181600116156101000203166002900480156107285780601f106106fd57610100808354040283529160200191610728565b820191906000526020600020905b81548152906001019060200180831161070b57829003601f168201915b50505050508152602001600182018054600181600116156101000203166002900480601f0160208091040260200160405190810160405280929190818152602001828054600181600116156101000203166002900480156107ca5780601f1061079f576101008083540402835291602001916107ca565b820191906000526020600020905b8154815290600101906020018083116107ad57829003601f168201915b50505050508152602001600282018054600181600116156101000203166002900480601f01602080910402602001604051908101604052809291908181526020018280546001816001161561010002031660029004801561086c5780601f106108415761010080835404028352916020019161086c565b820191906000526020600020905b81548152906001019060200180831161084f57829003601f168201915b50505050508152602001600382015481526020016004820160009054906101000a900460ff161515151581525050905080608001518160000151826020015183604001518292508191508090509450945094509450509193509193565b828054600181600116156101000203166002900490600052602060002090601f016020900481019282601f1061090a57805160ff1916838001178555610938565b82800160010185558215610938579182015b8281111561093757825182559160200191906001019061091c565b5b509050610945919061097a565b5090565b6040518060a00160405280606081526020016060815260200160608152602001600081526020016000151581525090565b61099c91905b80821115610998576000816000905550600101610980565b5090565b9056fea265627a7a7231582019a48646db994c1f88464ab116c4d8de3be2de8872326caf07e3de62ac1cd19564736f6c63430005100032",
  "source": "pragma solidity ^0.5.16;\r\n\r\ncontract CertificateVerification {\r\n\r\n    struct Certificate {\r\n        string studentName;\r\n        string course;\r\n        string institution;\r\n        uint issueDate;\r\n        bool isValid;\r\n    }\r\n\r\n    mapping(string => Certificate) private certificates;\r\n\r\n    function issueCertificate(\r\n        string memory _hash,\r\n        string memory _studentName,\r\n        string memory _course,\r\n        string memory _institution\r\n    ) public {\r\n        certificates[_hash] = Certificate(\r\n            _studentName,\r\n            _course,\r\n            _institution,\r\n            block.timestamp,\r\n            true\r\n        );\r\n    }\r\n\r\n    function verifyCertificate(string memory _hash)\r\n        public\r\n        view\r\n        returns (\r\n            bool,\r\n            string memory,\r\n            string memory,\r\n            string memory\r\n        )\r\n    {\r\n        Certificate memory cert = certificates[_hash];\r\n        return (\r\n            cert.isValid,\r\n            cert.studentName,\r\n            cert.course,\r\n            cert.institution\r\n        );\r\n    }\r\n}\r\n",
  "sourcePath": "C:\\Users\\DELL\\Desktop\\certificate-verification-blockchain\\contracts\\CertificateVerification.sol",
  "compiler": {
    "name": "solc",
    "version": "0.5.16+commit.9c3226ce.Emscripten.clang"
  },
  "schemaVersion": "3.4.16",
  "updatedAt": "2026-01-03T08:49:02.210Z",
  "networkType": "ethereum",
  "devdoc": {
    "methods": {}
  },
  "userdoc": {
    "methods": {}
  }
}